{
  "contractName": "Proof",
  "abi": [
    {
      "anonymous": false,
      "inputs": [
        {
          "indexed": false,
          "name": "status",
          "type": "bool"
        },
        {
          "indexed": false,
          "name": "timestamp",
          "type": "uint256"
        },
        {
          "indexed": false,
          "name": "owner",
          "type": "string"
        },
        {
          "indexed": false,
          "name": "fileHash",
          "type": "string"
        }
      ],
      "name": "logFileAddedStatus",
      "type": "event"
    },
    {
      "constant": false,
      "inputs": [
        {
          "name": "owner",
          "type": "string"
        },
        {
          "name": "fileHash",
          "type": "string"
        }
      ],
      "name": "set",
      "outputs": [],
      "payable": false,
      "stateMutability": "nonpayable",
      "type": "function"
    },
    {
      "constant": true,
      "inputs": [
        {
          "name": "fileHash",
          "type": "string"
        }
      ],
      "name": "get",
      "outputs": [
        {
          "name": "",
          "type": "uint256"
        },
        {
          "name": "",
          "type": "string"
        }
      ],
      "payable": false,
      "stateMutability": "view",
      "type": "function"
    }
  ],
  "bytecode": "0x6060604052341561000f57600080fd5b6106ec8061001e6000396000f30060606040526004361061004c576000357c0100000000000000000000000000000000000000000000000000000000900463ffffffff168063693ec85e14610051578063e942b516146100ff575b600080fd5b341561005c57600080fd5b61007d6004808035906020019082018035906020019190919290505061019f565b6040518083815260200180602001828103825283818151815260200191508051906020019080838360005b838110156100c35780820151818401526020810190506100a8565b50505050905090810190601f1680156100f05780820380516001836020036101000a031916815260200191505b50935050505060405180910390f35b341561010a57600080fd5b61019d600480803590602001908201803590602001908080601f0160208091040260200160405190810160405280939291908181526020018383808284378201915050505050509190803590602001908201803590602001908080601f016020809104026020016040519081016040528093929190818152602001838380828437820191505050505050919050506102a1565b005b60006101a9610607565b600084846040518083838082843782019150509250505090815260200160405180910390206000015460008585604051808383808284378201915050925050509081526020016040518091039020600101808054600181600116156101000203166002900480601f01602080910402602001604051908101604052809291908181526020018280546001816001161561010002031660029004801561028f5780601f106102645761010080835404028352916020019161028f565b820191906000526020600020905b81548152906001019060200180831161027257829003601f168201915b50505050509050915091509250929050565b600080826040518082805190602001908083835b6020831015156102da57805182526020820191506020810190506020830392506102b5565b6001836020036101000a03801982511681845116808217855250505050505090500191505090815260200160405180910390206000015414156104e4576040805190810160405280428152602001838152506000826040518082805190602001908083835b602083101515610364578051825260208201915060208101905060208303925061033f565b6001836020036101000a03801982511681845116808217855250505050505090500191505090815260200160405180910390206000820151816000015560208201518160010190805190602001906103bd92919061061b565b509050507f0d3bbc3c02da6ed436712ca1a0f626f1269df703a105f034e4637c7b10fb7ba5600142848460405180851515151581526020018481526020018060200180602001838103835285818151815260200191508051906020019080838360005b8381101561043b578082015181840152602081019050610420565b50505050905090810190601f1680156104685780820380516001836020036101000a031916815260200191505b50838103825284818151815260200191508051906020019080838360005b838110156104a1578082015181840152602081019050610486565b50505050905090810190601f1680156104ce5780820380516001836020036101000a031916815260200191505b50965050505050505060405180910390a1610603565b7f0d3bbc3c02da6ed436712ca1a0f626f1269df703a105f034e4637c7b10fb7ba5600042848460405180851515151581526020018481526020018060200180602001838103835285818151815260200191508051906020019080838360005b8381101561055e578082015181840152602081019050610543565b50505050905090810190601f16801561058b5780820380516001836020036101000a031916815260200191505b50838103825284818151815260200191508051906020019080838360005b838110156105c45780820151818401526020810190506105a9565b50505050905090810190601f1680156105f15780820380516001836020036101000a031916815260200191505b50965050505050505060405180910390a15b5050565b602060405190810160405280600081525090565b828054600181600116156101000203166002900490600052602060002090601f016020900481019282601f1061065c57805160ff191683800117855561068a565b8280016001018555821561068a579182015b8281111561068957825182559160200191906001019061066e565b5b509050610697919061069b565b5090565b6106bd91905b808211156106b95760008160009055506001016106a1565b5090565b905600a165627a7a72305820f6341373db154ca6c76ea8d026cc31d6f5bcf0377d23ef954395cadf8c9735f10029",
  "source": "pragma solidity ^0.4.19;\n\ncontract Proof {\n\n    struct FileDetails {\n        uint timestamp;\n        string owner;\n    }\n\n    mapping (string  => FileDetails) files;\n\n    event logFileAddedStatus(bool status, uint timestamp, string owner,string fileHash);\n\n    function set(string owner, string fileHash) public {\n        if (files[fileHash].timestamp == 0) {\n            files[fileHash] = FileDetails(block.timestamp, owner);\n            emit logFileAddedStatus(true, block.timestamp, owner, fileHash);\n        } else {\n            emit logFileAddedStatus(false, block.timestamp, owner, fileHash);\n        }\n    }\n\n    function get(string fileHash) external view returns(uint, string) {\n        return (files[fileHash].timestamp, files[fileHash].owner);\n    }\n}\n",
  "sourcePath": "/home/rails/Desktop/Proof_of _existence/contracts/contracts/Proof.sol",
  "compiler": {
    "name": "solc",
    "version": "0.4.21+commit.dfe3193c.Emscripten.clang"
  },
  "schemaVersion": "2.0.0",
  "updatedAt": "2018-06-01T07:07:55.753Z"
}